{
  "_format": "hh-sol-artifact-1",
  "contractName": "Learn",
  "sourceName": "contracts/Learn.sol",
  "abi": [
    {
      "inputs": [],
      "stateMutability": "nonpayable",
      "type": "constructor"
    },
    {
      "inputs": [],
      "name": "getOwner",
      "outputs": [
        {
          "internalType": "address",
          "name": "",
          "type": "address"
        }
      ],
      "stateMutability": "view",
      "type": "function"
    },
    {
      "inputs": [],
      "name": "increment",
      "outputs": [],
      "stateMutability": "nonpayable",
      "type": "function"
    },
    {
      "inputs": [],
      "name": "number",
      "outputs": [
        {
          "internalType": "uint256",
          "name": "",
          "type": "uint256"
        }
      ],
      "stateMutability": "view",
      "type": "function"
    },
    {
      "inputs": [
        {
          "internalType": "string",
          "name": "_text",
          "type": "string"
        }
      ],
      "name": "setText",
      "outputs": [],
      "stateMutability": "nonpayable",
      "type": "function"
    },
    {
      "inputs": [],
      "name": "textRaw",
      "outputs": [
        {
          "internalType": "string",
          "name": "",
          "type": "string"
        }
      ],
      "stateMutability": "view",
      "type": "function"
    }
  ],
  "bytecode": "0x6080604052348015600f57600080fd5b5033600160006101000a81548173ffffffffffffffffffffffffffffffffffffffff021916908373ffffffffffffffffffffffffffffffffffffffff160217905550610887806100606000396000f3fe608060405234801561001057600080fd5b50600436106100575760003560e01c80635d3a1f9d1461005c5780637176cbcc146100785780638381f58a14610096578063893d20e8146100b4578063d09de08a146100d2575b600080fd5b610076600480360381019061007191906102c9565b6100dc565b005b6100806100f2565b60405161008d91906103a6565b60405180910390f35b61009e610180565b6040516100ab91906103e1565b60405180910390f35b6100bc610186565b6040516100c9919061043d565b60405180910390f35b6100da6101b0565b005b8181600091826100ed92919061069e565b505050565b600080546100ff906104c1565b80601f016020809104026020016040519081016040528092919081815260200182805461012b906104c1565b80156101785780601f1061014d57610100808354040283529160200191610178565b820191906000526020600020905b81548152906001019060200180831161015b57829003601f168201915b505050505081565b60025481565b6000600160009054906101000a900473ffffffffffffffffffffffffffffffffffffffff16905090565b600160009054906101000a900473ffffffffffffffffffffffffffffffffffffffff1673ffffffffffffffffffffffffffffffffffffffff163373ffffffffffffffffffffffffffffffffffffffff1614610240576040517f08c379a0000000000000000000000000000000000000000000000000000000008152600401610237906107ba565b60405180910390fd5b6002600081548092919061025390610809565b9190505550565b600080fd5b600080fd5b600080fd5b600080fd5b600080fd5b60008083601f84011261028957610288610264565b5b8235905067ffffffffffffffff8111156102a6576102a5610269565b5b6020830191508360018202830111156102c2576102c161026e565b5b9250929050565b600080602083850312156102e0576102df61025a565b5b600083013567ffffffffffffffff8111156102fe576102fd61025f565b5b61030a85828601610273565b92509250509250929050565b600081519050919050565b600082825260208201905092915050565b60005b83811015610350578082015181840152602081019050610335565b60008484015250505050565b6000601f19601f8301169050919050565b600061037882610316565b6103828185610321565b9350610392818560208601610332565b61039b8161035c565b840191505092915050565b600060208201905081810360008301526103c0818461036d565b905092915050565b6000819050919050565b6103db816103c8565b82525050565b60006020820190506103f660008301846103d2565b92915050565b600073ffffffffffffffffffffffffffffffffffffffff82169050919050565b6000610427826103fc565b9050919050565b6104378161041c565b82525050565b6000602082019050610452600083018461042e565b92915050565b600082905092915050565b7f4e487b7100000000000000000000000000000000000000000000000000000000600052604160045260246000fd5b7f4e487b7100000000000000000000000000000000000000000000000000000000600052602260045260246000fd5b600060028204905060018216806104d957607f821691505b6020821081036104ec576104eb610492565b5b50919050565b60008190508160005260206000209050919050565b60006020601f8301049050919050565b600082821b905092915050565b6000600883026105547fffffffffffffffffffffffffffffffffffffffffffffffffffffffffffffffff82610517565b61055e8683610517565b95508019841693508086168417925050509392505050565b6000819050919050565b600061059b610596610591846103c8565b610576565b6103c8565b9050919050565b6000819050919050565b6105b583610580565b6105c96105c1826105a2565b848454610524565b825550505050565b600090565b6105de6105d1565b6105e98184846105ac565b505050565b5b8181101561060d576106026000826105d6565b6001810190506105ef565b5050565b601f82111561065257610623816104f2565b61062c84610507565b8101602085101561063b578190505b61064f61064785610507565b8301826105ee565b50505b505050565b600082821c905092915050565b600061067560001984600802610657565b1980831691505092915050565b600061068e8383610664565b9150826002028217905092915050565b6106a88383610458565b67ffffffffffffffff8111156106c1576106c0610463565b5b6106cb82546104c1565b6106d6828285610611565b6000601f83116001811461070557600084156106f3578287013590505b6106fd8582610682565b865550610765565b601f198416610713866104f2565b60005b8281101561073b57848901358255600182019150602085019450602081019050610716565b868310156107585784890135610754601f891682610664565b8355505b6001600288020188555050505b50505050505050565b7f4e4f54204f574e45520000000000000000000000000000000000000000000000600082015250565b60006107a4600983610321565b91506107af8261076e565b602082019050919050565b600060208201905081810360008301526107d381610797565b9050919050565b7f4e487b7100000000000000000000000000000000000000000000000000000000600052601160045260246000fd5b6000610814826103c8565b91507fffffffffffffffffffffffffffffffffffffffffffffffffffffffffffffffff8203610846576108456107da565b5b60018201905091905056fea26469706673582212201f5b1a9009235cd174f534ae2f4d6ae4773a70624f6b78a7c34889ec90dde16e64736f6c634300081b0033",
  "linkReferences": {},
  "deployedLinkReferences": {}
}